{
  "contractName": "GasStation",
  "abi": [
    {
      "constant": true,
      "inputs": [],
      "name": "maxGas",
      "outputs": [
        {
          "name": "",
          "type": "uint256"
        }
      ],
      "payable": false,
      "stateMutability": "view",
      "type": "function"
    },
    {
      "constant": true,
      "inputs": [],
      "name": "owner",
      "outputs": [
        {
          "name": "",
          "type": "address"
        }
      ],
      "payable": false,
      "stateMutability": "view",
      "type": "function"
    },
    {
      "constant": true,
      "inputs": [],
      "name": "gasStationSigner",
      "outputs": [
        {
          "name": "",
          "type": "address"
        }
      ],
      "payable": false,
      "stateMutability": "view",
      "type": "function"
    },
    {
      "constant": false,
      "inputs": [
        {
          "name": "newOwner",
          "type": "address"
        }
      ],
      "name": "transferOwnership",
      "outputs": [],
      "payable": false,
      "stateMutability": "nonpayable",
      "type": "function"
    },
    {
      "inputs": [
        {
          "name": "_gasStationSigner",
          "type": "address"
        },
        {
          "name": "_maxGas",
          "type": "uint256"
        }
      ],
      "payable": true,
      "stateMutability": "payable",
      "type": "constructor"
    },
    {
      "payable": true,
      "stateMutability": "payable",
      "type": "fallback"
    },
    {
      "anonymous": false,
      "inputs": [
        {
          "indexed": true,
          "name": "previousOwner",
          "type": "address"
        },
        {
          "indexed": true,
          "name": "newOwner",
          "type": "address"
        }
      ],
      "name": "OwnershipTransferred",
      "type": "event"
    },
    {
      "constant": false,
      "inputs": [
        {
          "name": "_tokenAddress",
          "type": "address"
        },
        {
          "name": "_client",
          "type": "address"
        },
        {
          "name": "_validUntil",
          "type": "uint256"
        },
        {
          "name": "_tokenAmount",
          "type": "uint256"
        },
        {
          "name": "_gasAmount",
          "type": "uint256"
        },
        {
          "name": "_v",
          "type": "uint8"
        },
        {
          "name": "_r",
          "type": "bytes32"
        },
        {
          "name": "_s",
          "type": "bytes32"
        }
      ],
      "name": "purchaseGas",
      "outputs": [],
      "payable": false,
      "stateMutability": "nonpayable",
      "type": "function"
    },
    {
      "constant": false,
      "inputs": [
        {
          "name": "_gasStationSigner",
          "type": "address"
        },
        {
          "name": "_maxGas",
          "type": "uint256"
        }
      ],
      "name": "setParameters",
      "outputs": [],
      "payable": false,
      "stateMutability": "nonpayable",
      "type": "function"
    },
    {
      "constant": false,
      "inputs": [],
      "name": "withdrawETH",
      "outputs": [],
      "payable": false,
      "stateMutability": "nonpayable",
      "type": "function"
    }
  ],
  "bytecode": "0x606060405260405160408061062a833981016040528080519190602001805160008054600160a060020a03191633600160a060020a031617905591506100549050828264010000000061005b81026104051704565b505061009c565b60005433600160a060020a0390811691161461007657600080fd5b60028054600160a060020a031916600160a060020a039390931692909217909155600355565b61057f806100ab6000396000f3006060604052600436106100825763ffffffff7c0100000000000000000000000000000000000000000000000000000000600035041663501d815c81146100845780638da5cb5b146100a9578063bb056781146100d8578063c419816114610112578063e086e5ec14610134578063eb70d4a814610147578063f2fde38b1461015a575b005b341561008f57600080fd5b610097610179565b60405190815260200160405180910390f35b34156100b457600080fd5b6100bc61017f565b604051600160a060020a03909116815260200160405180910390f35b34156100e357600080fd5b610082600160a060020a036004358116906024351660443560643560843560ff60a4351660c43560e43561018e565b341561011d57600080fd5b610082600160a060020a0360043516602435610405565b341561013f57600080fd5b610082610453565b341561015257600080fd5b6100bc6104a9565b341561016557600080fd5b610082600160a060020a03600435166104b8565b60035481565b600054600160a060020a031681565b60008060028a3089898c6000604051602001526040516c01000000000000000000000000600160a060020a039687168102825294909516909302601485015260288401919091526048830152606882015260880160206040518083038160008661646e5a03f115156101ff57600080fd5b5050604051805160008181526001602081905260409091205491945060ff9091161515148015915061023f575060025433600160a060020a039081169116145b80156102c9575088600160a060020a03166001838787876040516000815260200160405260006040516020015260405193845260ff90921660208085019190915260408085019290925260608401929092526080909201915160208103908084039060008661646e5a03f115156102b557600080fd5b505060206040510351600160a060020a0316145b80156102d55750874311155b80156102e357506003548611155b80156102ef5750600087115b15156102fa57600080fd5b506000818152600160208190526040808320805460ff191690921790915581548b92600160a060020a03808516936323b872dd938e939216918c9151602001526040517c010000000000000000000000000000000000000000000000000000000063ffffffff8616028152600160a060020a0393841660048201529190921660248201526044810191909152606401602060405180830381600087803b15156103a257600080fd5b6102c65a03f115156103b357600080fd5b5050506040518051905015156103c857600080fd5b600160a060020a03891686156108fc0287604051600060405180830381858888f1935050505015156103f957600080fd5b50505050505050505050565b60005433600160a060020a0390811691161461042057600080fd5b6002805473ffffffffffffffffffffffffffffffffffffffff1916600160a060020a039390931692909217909155600355565b60005433600160a060020a0390811691161461046e57600080fd5b600054600160a060020a039081169030163180156108fc0290604051600060405180830381858888f1935050505015156104a757600080fd5b565b600254600160a060020a031681565b60005433600160a060020a039081169116146104d357600080fd5b600160a060020a03811615156104e857600080fd5b600054600160a060020a0380831691167f8be0079c531659141344cd1fd0a4f28419497f9722a3daafe3b4186f6b6457e060405160405180910390a36000805473ffffffffffffffffffffffffffffffffffffffff1916600160a060020a03929092169190911790555600a165627a7a7230582011831eee0bc8c9cc8b82387a9243a877d4c4c93f42b34940706ee3b2ff63868c0029",
  "source": "pragma solidity ^0.4.19;\n\nimport 'zeppelin-solidity/contracts/token/ERC20/ERC20.sol';\nimport 'zeppelin-solidity/contracts/ownership/Ownable.sol';\n\ncontract GasStation is Ownable {\n\t// track used fillup hashes\n\tmapping(bytes32=>bool) usedhashes;\n\taddress public gasStationSigner;\n\tuint256 public maxGas;\n\n\t// constructor\n\tfunction GasStation(address _gasStationSigner,uint256 _maxGas) payable public {\n\t\tsetParameters(_gasStationSigner,_maxGas);\n\t}\n\n\t// default function\n\tfunction() payable public {}\n\n\t// swap tokens for gas\n\tfunction purchaseGas(address _tokenAddress, address _client, uint _validUntil, uint _tokenAmount, uint _gasAmount, uint8 _v, bytes32 _r, bytes32 _s) public {\n\t\tbytes32 hash = sha256(_tokenAddress, this, _tokenAmount, _gasAmount, _validUntil);\n\t\trequire(\n\t\t\t(usedhashes[hash] != true)\n\t\t\t&& (msg.sender == gasStationSigner)\n\t\t\t&& (ecrecover(hash, _v, _r, _s) == _client)\n\t\t\t&& (block.number <= _validUntil) \n\t\t\t&& (_gasAmount <= maxGas)\n\t\t\t&& (_tokenAmount > 0)\n\t\t);\n\t\t// invalidate this deal's hash\n\t\tusedhashes[hash] = true;\n\t\t// take tokens\n\t\tERC20 token = ERC20(_tokenAddress);\n\t\trequire(token.transferFrom(_client, owner, _tokenAmount));\n\t\t// send gas\n\t\t_client.transfer(_gasAmount);\n\t}\n\n\tfunction setParameters(address _gasStationSigner,uint256 _maxGas) onlyOwner public {\n\t\tgasStationSigner = _gasStationSigner;\n\t\tmaxGas = _maxGas;\n\t}\n\n\tfunction withdrawETH() onlyOwner public {\n\t\towner.transfer(this.balance);\n\t}\n}\n",
  "sourcePath": "/Users/sponnet/Documents/projects/ethereumgasstation/contracts/GasStation.sol",
  "compiler": {
    "name": "solc",
    "version": "0.4.19+commit.c4cbbb05.Emscripten.clang"
  },
  "schemaVersion": "2.0.0",
  "updatedAt": "2018-05-03T15:41:50.622Z"
}