{
  "contractName": "GasStation",
  "abi": [
    {
      "constant": true,
      "inputs": [],
      "name": "maxGas",
      "outputs": [
        {
          "name": "",
          "type": "uint256"
        }
      ],
      "payable": false,
      "stateMutability": "view",
      "type": "function"
    },
    {
      "constant": true,
      "inputs": [],
      "name": "owner",
      "outputs": [
        {
          "name": "",
          "type": "address"
        }
      ],
      "payable": false,
      "stateMutability": "view",
      "type": "function"
    },
    {
      "constant": true,
      "inputs": [],
      "name": "gasStationSigner",
      "outputs": [
        {
          "name": "",
          "type": "address"
        }
      ],
      "payable": false,
      "stateMutability": "view",
      "type": "function"
    },
    {
      "constant": false,
      "inputs": [
        {
          "name": "newOwner",
          "type": "address"
        }
      ],
      "name": "transferOwnership",
      "outputs": [],
      "payable": false,
      "stateMutability": "nonpayable",
      "type": "function"
    },
    {
      "inputs": [
        {
          "name": "_gasStationSigner",
          "type": "address"
        },
        {
          "name": "_maxGas",
          "type": "uint256"
        }
      ],
      "payable": true,
      "stateMutability": "payable",
      "type": "constructor"
    },
    {
      "payable": true,
      "stateMutability": "payable",
      "type": "fallback"
    },
    {
      "anonymous": false,
      "inputs": [
        {
          "indexed": true,
          "name": "previousOwner",
          "type": "address"
        },
        {
          "indexed": true,
          "name": "newOwner",
          "type": "address"
        }
      ],
      "name": "OwnershipTransferred",
      "type": "event"
    },
    {
      "constant": false,
      "inputs": [
        {
          "name": "_tokenAddress",
          "type": "address"
        },
        {
          "name": "_client",
          "type": "address"
        },
        {
          "name": "_validUntil",
          "type": "uint256"
        },
        {
          "name": "_tokenAmount",
          "type": "uint256"
        },
        {
          "name": "_gasAmount",
          "type": "uint256"
        },
        {
          "name": "_v",
          "type": "uint8"
        },
        {
          "name": "_r",
          "type": "bytes32"
        },
        {
          "name": "_s",
          "type": "bytes32"
        }
      ],
      "name": "purchaseGas",
      "outputs": [],
      "payable": false,
      "stateMutability": "nonpayable",
      "type": "function"
    },
    {
      "constant": false,
      "inputs": [
        {
          "name": "_gasStationSigner",
          "type": "address"
        },
        {
          "name": "_maxGas",
          "type": "uint256"
        }
      ],
      "name": "setParameters",
      "outputs": [],
      "payable": false,
      "stateMutability": "nonpayable",
      "type": "function"
    },
    {
      "constant": false,
      "inputs": [],
      "name": "withdrawETH",
      "outputs": [],
      "payable": false,
      "stateMutability": "nonpayable",
      "type": "function"
    }
  ],
  "bytecode": "0x6060604052604051604080610b0c83398101604052808051906020019091908051906020019091905050336000806101000a81548173ffffffffffffffffffffffffffffffffffffffff021916908373ffffffffffffffffffffffffffffffffffffffff160217905550610086828261008d640100000000026106a6176401000000009004565b5050610134565b6000809054906101000a900473ffffffffffffffffffffffffffffffffffffffff1673ffffffffffffffffffffffffffffffffffffffff163373ffffffffffffffffffffffffffffffffffffffff161415156100e857600080fd5b81600260006101000a81548173ffffffffffffffffffffffffffffffffffffffff021916908373ffffffffffffffffffffffffffffffffffffffff160217905550806003819055505050565b6109c9806101436000396000f300606060405260043610610083576000357c0100000000000000000000000000000000000000000000000000000000900463ffffffff168063501d815c146100855780638da5cb5b146100ae578063bb05678114610103578063c41981611461019c578063e086e5ec146101de578063eb70d4a8146101f3578063f2fde38b14610248575b005b341561009057600080fd5b610098610281565b6040518082815260200191505060405180910390f35b34156100b957600080fd5b6100c1610287565b604051808273ffffffffffffffffffffffffffffffffffffffff1673ffffffffffffffffffffffffffffffffffffffff16815260200191505060405180910390f35b341561010e57600080fd5b61019a600480803573ffffffffffffffffffffffffffffffffffffffff1690602001909190803573ffffffffffffffffffffffffffffffffffffffff1690602001909190803590602001909190803590602001909190803590602001909190803560ff1690602001909190803560001916906020019091908035600019169060200190919050506102ac565b005b34156101a757600080fd5b6101dc600480803573ffffffffffffffffffffffffffffffffffffffff169060200190919080359060200190919050506106a6565b005b34156101e957600080fd5b6101f161074d565b005b34156101fe57600080fd5b610206610822565b604051808273ffffffffffffffffffffffffffffffffffffffff1673ffffffffffffffffffffffffffffffffffffffff16815260200191505060405180910390f35b341561025357600080fd5b61027f600480803573ffffffffffffffffffffffffffffffffffffffff16906020019091905050610848565b005b60035481565b6000809054906101000a900473ffffffffffffffffffffffffffffffffffffffff1681565b60008060028a3089898c600060405160200152604051808673ffffffffffffffffffffffffffffffffffffffff1673ffffffffffffffffffffffffffffffffffffffff166c010000000000000000000000000281526014018573ffffffffffffffffffffffffffffffffffffffff1673ffffffffffffffffffffffffffffffffffffffff166c010000000000000000000000000281526014018481526020018381526020018281526020019550505050505060206040518083038160008661646e5a03f1151561037b57600080fd5b50506040518051905091506001151560016000846000191660001916815260200190815260200160002060009054906101000a900460ff161515141580156104105750600260009054906101000a900473ffffffffffffffffffffffffffffffffffffffff1673ffffffffffffffffffffffffffffffffffffffff163373ffffffffffffffffffffffffffffffffffffffff16145b80156104cd57508873ffffffffffffffffffffffffffffffffffffffff16600183878787604051600081526020016040526000604051602001526040518085600019166000191681526020018460ff1660ff16815260200183600019166000191681526020018260001916600019168152602001945050505050602060405160208103908084039060008661646e5a03f115156104ac57600080fd5b50506020604051035173ffffffffffffffffffffffffffffffffffffffff16145b80156104d95750874311155b80156104e757506003548611155b80156104f35750600087115b15156104fe57600080fd5b6001806000846000191660001916815260200190815260200160002060006101000a81548160ff0219169083151502179055508990508073ffffffffffffffffffffffffffffffffffffffff166323b872dd8a6000809054906101000a900473ffffffffffffffffffffffffffffffffffffffff168a6000604051602001526040518463ffffffff167c0100000000000000000000000000000000000000000000000000000000028152600401808473ffffffffffffffffffffffffffffffffffffffff1673ffffffffffffffffffffffffffffffffffffffff1681526020018373ffffffffffffffffffffffffffffffffffffffff1673ffffffffffffffffffffffffffffffffffffffff1681526020018281526020019350505050602060405180830381600087803b151561063457600080fd5b6102c65a03f1151561064557600080fd5b50505060405180519050151561065a57600080fd5b8873ffffffffffffffffffffffffffffffffffffffff166108fc879081150290604051600060405180830381858888f19350505050151561069a57600080fd5b50505050505050505050565b6000809054906101000a900473ffffffffffffffffffffffffffffffffffffffff1673ffffffffffffffffffffffffffffffffffffffff163373ffffffffffffffffffffffffffffffffffffffff1614151561070157600080fd5b81600260006101000a81548173ffffffffffffffffffffffffffffffffffffffff021916908373ffffffffffffffffffffffffffffffffffffffff160217905550806003819055505050565b6000809054906101000a900473ffffffffffffffffffffffffffffffffffffffff1673ffffffffffffffffffffffffffffffffffffffff163373ffffffffffffffffffffffffffffffffffffffff161415156107a857600080fd5b6000809054906101000a900473ffffffffffffffffffffffffffffffffffffffff1673ffffffffffffffffffffffffffffffffffffffff166108fc3073ffffffffffffffffffffffffffffffffffffffff16319081150290604051600060405180830381858888f19350505050151561082057600080fd5b565b600260009054906101000a900473ffffffffffffffffffffffffffffffffffffffff1681565b6000809054906101000a900473ffffffffffffffffffffffffffffffffffffffff1673ffffffffffffffffffffffffffffffffffffffff163373ffffffffffffffffffffffffffffffffffffffff161415156108a357600080fd5b600073ffffffffffffffffffffffffffffffffffffffff168173ffffffffffffffffffffffffffffffffffffffff16141515156108df57600080fd5b8073ffffffffffffffffffffffffffffffffffffffff166000809054906101000a900473ffffffffffffffffffffffffffffffffffffffff1673ffffffffffffffffffffffffffffffffffffffff167f8be0079c531659141344cd1fd0a4f28419497f9722a3daafe3b4186f6b6457e060405160405180910390a3806000806101000a81548173ffffffffffffffffffffffffffffffffffffffff021916908373ffffffffffffffffffffffffffffffffffffffff160217905550505600a165627a7a7230582068ed60d31f93b3f2eab44f78bf28dce487c05ed81c22f6f32884c9458adc03c70029",
  "source": "pragma solidity ^0.4.19;\n\nimport 'zeppelin-solidity/contracts/token/ERC20/ERC20.sol';\nimport 'zeppelin-solidity/contracts/ownership/Ownable.sol';\n\ncontract GasStation is Ownable {\n\t// track used fillup hashes\n\tmapping(bytes32=>bool) usedhashes;\n\taddress public gasStationSigner;\n\tuint256 public maxGas;\n\n\t// constructor\n\tfunction GasStation(address _gasStationSigner,uint256 _maxGas) payable public {\n\t\tsetParameters(_gasStationSigner,_maxGas);\n\t}\n\n\t// default function\n\tfunction() payable public {}\n\n\t// swap tokens for gas\n\tfunction purchaseGas(address _tokenAddress, address _client, uint _validUntil, uint _tokenAmount, uint _gasAmount, uint8 _v, bytes32 _r, bytes32 _s) public {\n\t\tbytes32 hash = sha256(_tokenAddress, this, _tokenAmount, _gasAmount, _validUntil);\n\t\trequire(\n\t\t\t(usedhashes[hash] != true)\n\t\t\t&& (msg.sender == gasStationSigner)\n\t\t\t&& (ecrecover(hash, _v, _r, _s) == _client)\n\t\t\t&& (block.number <= _validUntil) \n\t\t\t&& (_gasAmount <= maxGas)\n\t\t\t&& (_tokenAmount > 0)\n\t\t);\n\t\t// invalidate this deal's hash\n\t\tusedhashes[hash] = true;\n\t\t// take tokens\n\t\tERC20 token = ERC20(_tokenAddress);\n\t\trequire(token.transferFrom(_client, owner, _tokenAmount));\n\t\t// send gas\n\t\t_client.transfer(_gasAmount);\n\t}\n\n\tfunction setParameters(address _gasStationSigner,uint256 _maxGas) onlyOwner public {\n\t\tgasStationSigner = _gasStationSigner;\n\t\tmaxGas = _maxGas;\n\t}\n\n\tfunction withdrawETH() onlyOwner public {\n\t\towner.transfer(this.balance);\n\t}\n}\n",
  "sourcePath": "/Users/sponnet/Documents/projects/ethereumgasstation/contracts/GasStation.sol",
  "compiler": {
    "name": "solc",
    "version": "0.4.19+commit.c4cbbb05.Emscripten.clang"
  },
  "schemaVersion": "2.0.0",
  "updatedAt": "2018-03-20T16:02:35.709Z"
}